:100000000EC100001EC100001CC100001AC100008A
:1000100018C100000C94232014C100001FC600006A
:1000200010C100000EC100000C9434180C9407207D
:100030000C9415200C940E1804C1000002C100009D
:1000400000C10000FEC00000FCC00000FAC00000BB
:10005000F8C0000004C60000F4C00000F2C00000B8
:10006000F0C00000EEC00000E62FF72F903009F43A
:100070009395E5B8C4B8B6EFB0937A00A5E0A09325
:100080007B00A8E0A093810010928000AFEFA093C6
:100090008500A0938400A6E0A093360010928B0008
:1000A00010928A00B3E0AFE3A91B51E0392F33303F
:1000B0002AF0A05CBC4F53953350F9CFB093890020
:1000C000A0938800A0917A00A4FFFCCFB6EBB09378
:1000D0007A00A2E0A0936F00A9E0A093810062E003
:1000E000A0E0A0937B00A1E0A09353008895E5B821
:1000F000C4B884FF1AC0A8E10000AA95F1F7EF93F5
:10010000FF93E7B1F8B1A4E0C2FCA2E0C0FCA1E01B
:10011000BF2FBA2BAE2BB8B904B9A7B9E7B9F8B954
:10012000FF91EF910BC00C947300ACE10000000054
:10013000AA95F1F725B9E5B8000004B9A0918400AB
:10014000A0918500B0918900A395AB1760F7A091AD
:100150007A00A4FFF3CFB6EBB0937A006A9571F7FB
:100160006091780070917900308186FD630F619312
:10017000308186FD731F80FF7193652F4A9579F753
:1001800010926F0010928100B6E0B0937A0008954B
:100190000104100102044E6F742063616C69627285
:1001A000617465642100B903870358032E030703B4
:1001B000E402C302A40288020000140029003E00E9
:1001C0005300690080009700AE00C600DF00F80011
:1001D00012012D01490165018201A001BE01DE016C
:1001E000FF012102440268028E02B502DE02090309
:1001F000350364039403C803FE0337047304B40493
:10020000F90443059305EA054906B3062907AE0735
:100210004808FF08DE09FD0A930C480F991B1124BA
:100220001FBECFEFD8E0DEBFCDBF21E0A0E0B1E040
:1002300001C01D92AA3BB207E1F70E947D2B0C94EE
:100240008932DECE80FD5C9A80FF5C98549A000073
:100250005D9A559A589859985A985B9864FD589A9F
:10026000509A65FD599A519A66FD5A9A529A67FDBD
:100270005B9A539A00005D986BD387FD10C05D9A1E
:10028000589859985A985B9860FD589A61FD599A08
:1002900062FD5A9A63FD5B9A00005D9859C3089508
:1002A00080913B01809300018091A1018093020124
:1002B000089590913B019F5F90933B01682F81E0EF
:1002C000C1DF3DD3A89508958F5CF3CF089580E2F8
:1002D000F0CF0895A1E0B0E0E0E7F1E00C94E03168
:1002E00018162CF48983F3DF89818150F9CF219688
:1002F000E2E00C94FC318DE3DCCF0895682F80E0C0
:10030000A1DF1DC308951092A10180E8F7DF1092CC
:100310003B01089581E08093A10180ECEFDF109212
:100320003B01089582E08093A10180E9E7DF10920C
:100330003B01089583E08093A10180EDDFDF1092FF
:100340003B01089560933B01813011F480EC01C0C2
:1003500080E8860FD3CF089560910001809102015B
:10036000F1CF089581E0CADF82E0F4D2CCCF0895C6
:10037000CF93DF93EC018991882311F09ADFFBCFB3
:10038000DF91CF910895CF93DF93EC01FE0184912B
:10039000982F9F7719F08DDF2196F8CFDF91CF91BD
:1003A0000895CF93DF93EC01CE010E944B32982F3A
:1003B0009F7719F07EDF2196F7CFDF91CF910895D7
:1003C0000F931F93CF93DF938C01085F1F4FEC01B6
:1003D00021960E944B326DDFC017D10711F0CE017C
:1003E000F6CFDF91CF911F910F91089584E1B2D2A2
:1003F00083E384DF82E382DF82E0ACD260E380E8E3
:1004000021DFA1D260E380E81DDF97D260E380E8BE
:1004100019DF93D260E280E815DF90D289E26EDFC7
:1004200082D28AE66BDF8AD288E268DF86D288E0F1
:1004300065DF83D281E862DF80D286E15FDF7DD233
:1004400091DF81E087D28CE059DF88E457DF82E7D3
:1004500090E0B6DF80E552DF8AE690E0B1DF88E524
:100460004DDF8AE790E0ACDF88E748DF82E690E086
:10047000A7DF80E743DF8AE590E0A2DF80E63EDF8A
:100480008AE490E09DDF88E639DF82E490E098DF3F
:1004900080E434DF82E590E093CF089590913B01B2
:1004A00080E1891B17CF0895A1E0B0E0EAE5F2E012
:1004B0000C94E0318983F2DF9091A1019F5F9093CA
:1004C000A1018981923030F091E09093A101909345
:1004D0003E0102C010923E01682F8091A10132DFDF
:1004E0002196E2E00C94FC31DFDF1BC308950BDFA3
:1004F000D5DF09CF08950EDFD1DF0CCF0895089521
:100500000F9383E991E04DDF409185014D3F64F405
:1005100060917301709174018091750190917601E1
:1005200003E026E4E3D002C08FE3C3DE0F91089519
:10053000909119019F70923071F4D6DF82E890E0BB
:1005400030DFE0913C01F0913D0122E044E06FEFAB
:1005500084819581BAC1089597FF09C08F939F93B5
:100560008DE2A7DE9F918F91909581959F4F61E2DB
:1005700071E04AE050E00E942832FACEEDDF01C07F
:10058000EBDFA5CEEF92FF920F931F93182F062F4C
:10059000F42E82E891E005DFEE24E0913C01F09139
:1005A0003D018685E81611F4812F09C08485E8167F
:1005B00011F4802F04C08585E81611F48F2D79DEA3
:1005C000E3948E2D833049F71F910F91FF90EF90A8
:1005D0000895682F80E092E0662309F491E062308C
:1005E00009F481E008950F93082FE2EAF1E0880F03
:1005F000880FE80FF11D60817181828193816436DB
:1006000071058105910570F42091010127FD0AC053
:10061000802FDFDF692F0E949C1D6EEF23E044E0F6
:1006200054D104C04FEF04E024E060D050DE0F91BD
:100630000895863058F4E5E9F1E0E80FF11DE80F80
:10064000F11D8081918163E04BD141CE08951F93CC
:10065000182F80916F01882319F039DE80E029DEA0
:1006600059DE89E791E09DDE812F82958F70E1DF71
:10067000812F8F70DEDF1F91089580910D0182958B
:100680008F7018D080910D0183701AD080910D0168
:10069000DECFE9E8F1E0E80FF11D0895CF93F9DF2F
:1006A0009081C681C91710F405D001C011D00FDEAA
:1006B000CF910895EEDF8F93808106DE8F9100C089
:1006C0008F9385E491E06DDE8F91E3DF8681FCCD31
:1006D000E0DF8F938681F8DD8F9100C08F9381E4F6
:1006E00091E05FDE8F91D5DF8081EECDAEE0B0E0AE
:1006F000ECE7F3E00C94D031342E222E6B017C0118
:10070000102F1F7080E389838A838B838C838D8372
:100710008E83F7FE0BC08DE2CCDDF094E094D09494
:10072000C094C11CD11CE11CF11C04C005FF02C017
:100730008BE2BFDD133009F4B6C0143009F4BAC03F
:10074000153051F0163081F01730B1F074E6872E75
:10075000912CA12CB12C17C060EA862E66E8962E4B
:10076000AA24A394B12C0FC050E4852E52E4952EF8
:100770005FE0A52EB12C07C040E8842E46E9942EF8
:1007800048E9A42EB12C3AE0432E512C612C712C57
:10079000C814D904EA04FB0470F0C701B6016B5F0A
:1007A0007F4F8F4F9F4FA30192010E946D316901CE
:1007B0007A013394EDCF81E1830D9BEA899F912CDF
:1007C0001124969486E08319899F812C11248694A4
:1007D000982D990F980D882E891A5E0187E0A80E32
:1007E000B11C2AE0A501C701B6010E940732F5013C
:1007F00001900020E9F7CF0101977C01EA18FB087E
:10080000AE2C6701DD24282D30E02C5F3F4F2C15E6
:100810003D051CF4939493E0890E892D90E0865C4D
:100820009F4F0E944B32B82E04FF04C0A11610F453
:100830001E1901C010E0AE2CA818A10E1A1424F045
:100840008EE237DD182D1E19811002C028EFA22E6E
:10085000912C012F10E0C00ED11EEA2CFF24E7FCE2
:10086000F094E92DF0E0EC15FD05A4F43696E01BBC
:10087000F10B81E090E08C0F9D1FE80FF91F808144
:1008800018DD9394892D90E08E159F0551F78EE227
:1008900010DDE7CFBB2011F08B2D0BDD222089F07E
:1008A000822D07DD0EC098EE892E93E0992EA12CA3
:1008B000B12C69CF80E1882E87E2982EA12CB12C33
:1008C00062CF2E96E2E10C94EC310F93362FBC01EF
:1008D00080E090E0022F242F432F08DF0F9108952E
:1008E0000F93062FBC0180E090E026E54DEFFEDE81
:1008F0000F9108950F93042F28E440E0F7DE8AE774
:10090000D8DCE5DC0F910895089503D002D001D022
:1009100000D000D003D002D001D000D000D003D04E
:1009200002D001D000D000D0A89503D002D001D0D1
:1009300000D000D003D002D001D000D000D003D02E
:1009400002D001D000D000D003D002D001D000D01E
:100950000000089590E0893C28F0885C48EC849F72
:10096000C0011124009709F4089520918100277097
:1009700019F0DADF0197F6CF8130910519F002976F
:100980003EE303C037E180E090E02091B200230F06
:100990002093B30042E04093700027E023BF889586
:1009A00026E023BF10927000A895DCCF8F9384E0DF
:1009B000D1DF07C08F9382E0CDDF03C08F9381E04A
:1009C000C9DF8F911F93182F106410937C00E12FC3
:1009D000E07880912C01E81759F0E0932C01AEDF0C
:1009E0008EE980937A0083E083BF889582E083BF9D
:1009F00020E030E0A901E0E01FC08EE980937A009A
:100A000083E083BF889582E083BF60917800709116
:100A10007900260F371F411D511DE43061F480918C
:100A20002E01803041F084E02030380720F417FD9B
:100A300002C01068CACFEF5F80912B01E817E8F27F
:100A400060912F017091300117FF04C060912D015A
:100A500070912E0180E090E00E942B312FEF33E067
:100A600040E050E00E946D31B901CA0120912B0194
:100A700030E040E050E00E946D31C9011F910895BF
:100A80009B01281B390B50F0C9010895BC018091CE
:100A90002F01909130016817790718F4861B970B86
:100AA000089580E090E00895EF92FF920F931F93D6
:100AB000CF93DF93F82EE92EC5E64F9B05C0CF2DCF
:100AC000DE2D05E510E019C081E044DFC150A9F733
:100AD000F6CF82E03FDF000F4F9B0F5F0F730F33A6
:100AE00079F4111103C0CF2DDE2D14E01F5F183CE7
:100AF00090F4A8951C161D0644F0D7FFEACF0BC052
:100B00000111F7CF1123A9F306C02A972097A9F75F
:100B1000CFEFDFEFF2CF812FCDB7DEB7E6E00C9459
:100B2000F831CF93BDDBC82F80913E018823C1F0FF
:100B3000813049F4C13039F46FE004DC8BE2B9DB79
:100B40006FE081E0FFDB80E49FE1AEDFC13039F48C
:100B500080913E01813019F460E0F4DB9FDCFCDB26
:100B6000CF9108958FE393E00E944B32382F80E4B9
:100B700093E00E944B3220913301230F30913401D6
:100B8000381F209316013093170183E0283E380761
:100B900020F0C901885E934002C080E090E062E3EB
:100BA00070E00E944631683008F067E0E6EAF1E064
:100BB000E60FF11DE60FF11D4591559125913591F7
:100BC00062E3681B421B530B649FC001659F900D3D
:100BD0001124499662E370E00E944631620F731F50
:100BE000709372016093710181E493E00E944B3233
:100BF000992787FD90956091330170913401860F9C
:100C0000971F90932E0180932D0190936E018093F6
:100C10006D010895CF93DF9324E130E0B9010E9484
:100C20004631DC01E8EBF1E0E60FF71FE60FF71FB6
:100C3000C591D591459155914C1B5D0B4A9FC001C3
:100C40004B9F900D5A9F900D1124B9010E9446317F
:100C50006C0F7D1FCB01DF91CF91089518951895EA
:100C6000CF93DF9330911801A0913C01B0913D01E9
:100C7000E9E8F1E080E090E08317C0F441911C9630
:100C80002C911C97421731F0EC01C757DE4F4E8173
:100C9000421302C00196F0CFFC01EE0FFF1FEB568E
:100CA000FE4F20813181293E334008F084E1DF91FD
:100CB000CF91089510921A011092180110926801B4
:100CC00010924E011092190110923A0110926F0188
:100CD0001092530110925401109255011092830109
:100CE00082E080938401109201011092820110929F
:100CF000810110927701109278011092790110927F
:100D00007A0181EF8093860108955E9801DE80E08C
:100D100090E0CACE0895A1E0B0E0E1E9F6E00C94DD
:100D2000DE3117B818B8E82FF0E0E057FE4F949185
:100D300095B9262F281BE20FF11D27FDFA95E491A6
:100D4000E92BE4B969833EDE8C016981862F3ADEA6
:100D500020912F013091300136952795A9014350FC
:100D60005109B801625E7F4F4617570778F4255E38
:100D70003F4F0217130750F4BC01625E7F4F4617C6
:100D8000570720F441E08217930708F040E014B8B9
:100D9000842F2196E4E00C94FA31CF9361E080E057
:100DA000BADFC82F62E080E0B6DFC80F62E081E002
:100DB000B2DF8C0FCF910895A3E1B0E0E2EEF6E050
:100DC0000C94D031B82E10921A01807FA9F4E5DF7F
:100DD000833009F0B8C3C6DA8FE492E0E2DA9ADA37
:100DE0008FE367DA80ED97E05FDE8B30C0F4BADA2C
:100DF00083E191E0D6DAA7C306E910E0B3DA8EEB1F
:100E000091E0CFDACADF833021F41F5F143010F095
:100E100006C010E088E29EDD015081F763C07ADAF7
:100E20000E9495188FEC90E0BCDA60E089E193E0D5
:100E30000E94583260E08AE193E00E94583260E0FC
:100E400088E193E00E94583260E082E00E949C1D9D
:100E50006C019A83898361E082E00E949C1D7C0181
:100E60009C838B8360E081E00E949C1D8C019E83AB
:100E70008D8323E040E26EEFC60127DD23E040E2F0
:100E80006EEFC70122DD23E044E06EEFC8011DDDF7
:100E90002AE5C216D10424F024E130E03A83298304
:100EA000698189E193E00E9458328AE5E816F104ED
:100EB00024F024E130E03C832B836B818AE193E0D2
:100EC0000E9458320A35110524F024E130E03E83B7
:100ED0002D836D8188E193E00E94583282E08093F7
:100EE0003E011FDE9B2D9F709F87913009F04DC002
:100EF00001E010E058EB252E52ED352E57E4452E3B
:100F0000512C62E0A62E78E0972EECE06E2EF4ECE9
:100F1000CF2EF6E3DF2EE12CF12C39C0839423E0B1
:100F2000281558F1E8DAE3DA84E5C3D9C8011FDBF4
:100F3000CED9E1E0BE1230C082E091E032DA64E066
:100F40008091330190913401CBDCE4D98DEF90E0B6
:100F500028DA809171019091720109DB8EEB809308
:100F60002B0117B818B814B815B888EE93E09CDDBB
:100F7000F4E0BF1699F28B3088F288EE93E094DDAE
:100F80000F5F1F4F0830110511F418E71BC1812CAA
:100F9000B02EB0E27B2EC6CFF2E0BF1241C020914E
:100FA0002F0130913001A8E5BBE10E94AB31A701D0
:100FB00096010E948F3181E085B985E084B980E097
:100FC000288B398B4A8B5B8BF1DC288939894A89DC
:100FD0005B89821B930B9A83898381E184B980E0CA
:100FE000288B398B4A8B5B8BE1DC288939894A89CC
:100FF0005B89821B930B9C838B8384E085B984E19E
:1010000084B981E0288B398B4A8B5B8BCFDC2889B4
:101010003989821B930B9E838D8387EE90E0B7C046
:1010200093E0B91229C0A5B8EAE0E4B980E0BEDCDB
:1010300020912F01309130013695279538872F83E5
:10104000821B930B9A838983F2E2F4B980E0AEDCD1
:101050002F813885821B930B9C838B8395B828E264
:1010600024B981E0A3DC2F813885821B930B9E83FA
:101070008D8389ED90E08BC084E0B81207C08FE3C8
:1010800092E08FD98ADE81115BC287C095E0B912E8
:1010900013C015B8A4B880E089DC9A83898394B81A
:1010A00081E084DC9C838B8374B882E07FDC9E8348
:1010B0008D8389EF90E06BC0E6E0BE1227C0A4B834
:1010C000A5B880E073DC20912F0130913001821BA4
:1010D000930B9A83898394B895B881E067DC20915B
:1010E0002F0130913001821B930B9C838B8374B84A
:1010F00075B882E05BDC20912F0130913001821BBA
:10110000930B9E838D8385EF90E041C0F7E0BF1283
:1011100040C020912F0130913001A8E5BBE10E9431
:10112000AB31A20191010E946D31A5B883E084B971
:1011300080E0288B398B4A8B5B8B38DC2889398996
:101140004A895B89821B930B9A83898395B864B81B
:1011500081E0288B398B4A8B5B8B28DC2889398985
:101160004A895B89821B930B9C838B8375B890E3C0
:1011700094B982E0288B398B4A8B5B8B17DC2889EA
:101180003989821B930B9E838D8383ED90E009D96F
:1011900004C0E1E0BE1609F4E4CEBCD889819A818E
:1011A000DBD995D88B819C81D7D991D88D819E81AF
:1011B000D3D9D7CEA0D98FE392E0F3D884E6CADBA7
:1011C000115019F0EADD8111F5CFCCD888EC90E010
:1011D000E8D823E044E06FEF809131019091320133
:1011E00074DB98D881EC90E0DCD823E044E06FEF2A
:1011F000809138019091390168DB82E080933E0153
:1012000090DC10921A01AED88DEB90E0CAD860E065
:1012100082E00E943F1580907B0190907C01A0901D
:101220007D01B0907E019C868B8661E082E00E9409
:101230003F15C0907B01D0907C01E0907D01F09043
:101240007E01DE86CD8660E081E00E943F15009140
:101250007B0110917C011E830D8362E080E00E947F
:101260003F1580917B0190917C019C838B8362E090
:1012700081E00E943F1580917B0190917C019A87CB
:10128000898761E080E00E943F1580917B01909109
:101290007C019A838983EF85E13021F02091370129
:1012A000223021F4029698878F8306C098878F8317
:1012B000109237018CE022D8C40162D9C60160D9EE
:1012C000B801882777FD8095982F03E026E444EF46
:1012D0000DDA6E01FFE0CF0ED11CFE013196819137
:1012E00091910A97853B9105E8F4EC15FD05B9F756
:1012F000A8E3EA2EA3E0FA2E8E010F5F1F4FF8013C
:1013000060810E5F1F4F6E5EC7010E945832FFEF73
:10131000EF1AFF0A0C151D0591F70E948A0185EB53
:1013200091E03FD882E080933E01FBDB0E942A28B7
:101330002F85213029F080913701823009F0E7C0F4
:1013400011D880E00E9464018BE691E02AD882E007
:101350000E94640182E390E024D8E0E4BE2E10E015
:10136000FAE0CF2ED12CE12CF12CA4DC10921A0142
:1013700060E082E00E943F15009185016091730159
:10138000709174018091750190917601073F44F44A
:10139000A70196010E946D310F5FB901CA01F6CF16
:1013A00000938501609373017093740180937501BC
:1013B00090937601073F09F093C0DC01CB01805682
:1013C0009109A109B10980399545A105B10508F038
:1013D00087C06091870170918801CB018B569F4F28
:1013E0008B32914008F07CC01F5F153008F479C043
:1013F0008FE393E00E9466320E94B2018BE290E09C
:101400000E94D1018091870190918801A5D8AADB23
:1014100018B881E087B980E284B982E0D3DA853DEB
:101420009340DCF714B810922E0110922D0182E047
:10143000C9DA8C0180916D0190916E0190932E011B
:1014400080932D0182E0BEDA7C01EE0CFF1C10922D
:101450002E0110922D0182E0B5DAC0906D01D0907E
:101460006E01D0922E01C0922D01080F191F0E1986
:101470001F090E948A0184E290E00E94D10181E468
:1014800093E00E944B3273E0B72EB80E9601D8015C
:101490000E94BA319701442737FD4095542F0E948E
:1014A0008F31B20E6B2D81E493E00E9458328B2D68
:1014B000992787FD909550D855DB82E080933E01B7
:1014C00030DB109237018CE00E947E0188E393E0CC
:1014D0000E944B32682F8BE393E00E94583217C072
:1014E00010E00E948A0160917301709174018091F3
:1014F00075019091760104E026E440918501F6D8CB
:101500000E944E0288E226DABA9409F02ECF8EE1CC
:1015100080932B0180E00E94372B0E94B20183E16F
:1015200091E00E94D1010E948A0186E392E00E942C
:10153000D10110921A0182E080933E01F2DA03C0D9
:1015400052E0852E2ACE6396E2E10C94EC31809134
:10155000370181110DC088E393E00E944B3261E0B6
:10156000680F8BE393E00E94583281E0809337014B
:101570000895CF92DF92FF920F931F93CF93DF9343
:101580001F92CDB7DEB7E82FF0E0ED56FE4FE491A5
:10159000E8B9E7B915B8E62FF0E0E057FE4FE4915F
:1015A000E4B908E813E1FE2EFF0C862F6983FED90B
:1015B0006C01F4B869818017910710F48C01F5CFA4
:1015C0000097D1F089E491E00E94D101D60120EA90
:1015D00036E841E050E00E94C03128E937EB40E0B6
:1015E00050E00E946D31DA01C90122E041E467EF69
:1015F0006CD917B818B814B80F90DF91CF911F911C
:101600000F91FF90DF90CF9008950F931F93CF938A
:10161000DF9385E0D7D985E0D1D98C01EC01CC0FDF
:10162000DD1FCC0FDD1F2A9610923501C43883E0F0
:10163000D80750F489EA91E00E94D1010E944E023D
:1016400081E08093350123C088EB91E00E94D101B5
:1016500062E0CE0145D90E9467010A3F86E0180783
:1016600080F40333164050F488EA92E00E94D101DE
:101670000E944E028DEC6ED948DB09C08FEA92E0E1
:1016800002C085EB91E00E94D1010E944E02DF91E1
:10169000CF911F910F9108959C01261B370BB0E04D
:1016A000A0E0B9016A0F711D672F7727A20F260FDF
:1016B000371FBA016B0F711D672F7727B40FFB011E
:1016C000EE0FFF1F4E0F5F1F6B3E28F4821793072C
:1016D00040F7CA01089580E090E00895ADE1B0E0E0
:1016E000E4E7FBE00C94D031982E862E242EA895AA
:1016F000E62FF0E0E057FE4F24912E87220F288F2F
:10170000339634913B83E42FF0E0E057FE4F449151
:101710004C83F42EFF0C3396B490E82FF0E0E057A2
:10172000FE4F54915983550F5F873396349045B9D6
:101730006E85462B4A8744B937B838B8882D3ED9CC
:10174000AC018C818F2985B9EE84EF28E4B8882D0F
:10175000498F5D8F33D97E8574B9882D2FD93C018F
:1017600014B8E1D815B88A8584B9882D27D9498D50
:101770005D8DBA0185D96C019B8197B918B8A98193
:10178000BC81AB2BAD83A5B9A4B9892D17D97ED95E
:101790008C0115B8C8D8E981E5B9892D0FD976D95A
:1017A0002C01F981F4B9892D09D970D9A82E292FD6
:1017B000B201C8012A8F64D92A8D498D5D8D80328E
:1017C00031E0930730F460E2C61661E0D60608F413
:1017D0007EC5C40CD51C840F951FC816D90610F001
:1017E0002A0102C06A2C722E20914E01809168015C
:1017F00090E0820F911D02974CF0213009F067C5EF
:1018000090914B0180916501981361C579817F2981
:10181000798784E74816510408F46CC1C201880F27
:10182000991F44966816790608F064C137B838B82D
:10183000E4B8882DBFD86C01822DC4D88C01F5B8CE
:10184000882DB8D89601295A3D4F18B8281739075E
:1018500008F09CC09B8197B9A985A4B9A5B9822D30
:10186000A9D888349F4028F085E080931A0182E24D
:1018700004C085E080931A0184E280931901D0921C
:101880004401C0924301B801C60105D990934A01B1
:10189000809349019601A0E1B7E20E94AB3120910B
:1018A00014013091150140E050E00E946D313093F9
:1018B000460120934501888D8F2984B915B837B822
:1018C00038B8822D7FD88C01882D74D8B801E3D820
:1018D0009093480180934701209119012F70243083
:1018E00059F540914501509146016091490170912F
:1018F0004A01D2DE0097E1F0F4B8EB813E2A37B816
:10190000882D58D88C0117B89C01A0E1B7E20E943D
:10191000AB31209138013091390140E050E00E9414
:101920006D31A901B8018091470190914801B4DE61
:101930009093440180934301809119018F7084300A
:1019400009F4BDC418B8EB80EB28E7B8F981F4B905
:101950002D8125B9892D32D86C0198D88C01882D1C
:1019600031D8E0901B01F0901C01BC01C60193D856
:101970009C01D7010E94AB31980140E050E00E94E9
:101980006D31309344012093430199C43B8137B9B1
:10199000498544B945B9892D0DD86C01822D12D8DD
:1019A0008C01598155B9892D05D8895A9D4F8C15BF
:1019B0009D0508F08CC438B837B8822D0E94DA042F
:1019C000813D934028F485E080931A0182E304C0AE
:1019D00085E080931A0184E380931901B601C80160
:1019E0005AD89093640180936301C6014FD89C013B
:1019F000A0E1B7E20E94AB3120911B0130911C01A4
:101A000040E050E00E946D313093600120935F010F
:101A100018B87B8177B98F858F2984B985B9892DCD
:101A20000E94E2048C01822D0E94DA04B80133D8AE
:101A30009093620180936101209119012F702430ED
:101A400079F540915F01509160016091630170915F
:101A5000640122DE009701F1F5B8F4B838B88B8143
:101A6000832987B9892D0E94DA0410D88C0117B810
:101A70009C01A0E1B7E20E94AB312091310130918D
:101A8000320140E050E00E946D31A901B80180911F
:101A900061019091620100DE90935E0180935D018F
:101AA000809119018F70843009F4E1C13B2838B866
:101AB00037B815B88D8184B9892D0E94DE047C0168
:101AC000882D0E94E2046C0100911401109115010F
:101AD000BC01C7010E944B059C01D8010E94AB319B
:101AE000960140E050E00E946D3130935E012093FA
:101AF0005D01BDC118B89B8197B9A981A5B9B98508
:101B0000B4B9892D0E94DE04998B888B0E9446050A
:101B10008C01822D0E94E20498878F836301E4E6A2
:101B2000CE0ED11CB301C801C016D106B8F40E9474
:101B30004B055C0180911B0190911C019C0140E0D0
:101B400050E060E871EA83E09CE10E946D31D501CC
:101B50000E94C031AF81B8859D011EC00E944B0517
:101B60005C01BD81B4B9892D0E94DE04998B888BFC
:101B70000E9446058C01822D0E94E20498878F8383
:101B8000BC01C5010E944B059C01A4E6B0E00E9487
:101B9000AB31EF81F8859F0140E050E00E946D314C
:101BA0002C8B3D8B4E8B5F8B14B815B838B837B87B
:101BB00081E00E94AA04FA85F4B9882D0E94DE040F
:101BC0008F359D4008F459C1E4B8882D0E94DA048D
:101BD0005C01822D0E94E2049C8F8B8F892D0E94D4
:101BE000E2049B8B8A8B4B8D5C8D413D574008F402
:101BF000D2C0F5B8882D0E94DA048115944098F07F
:101C000080911A01843078F48AE080931A016B8DF8
:101C10007C8D8A899B890E944B0590935E018093FD
:101C20005D0121E02AC484E080931A018DE0809355
:101C300019016A147B0430F4C501861997099A8347
:101C4000898302C0BA82A982C0901401D090150184
:101C5000E12CF12C60E871EA83E09CE1A701960198
:101C60000E946D31A981BA810E94C031AB8DBC8DBB
:101C70009D0140E050E00E946D3180916801882311
:101C800069F08091590190915A01A0915B01B09146
:101C90005C0182179307A407B50708F52093590143
:101CA00030935A0140935B0150935C019501A0E190
:101CB000B7E20E94AB31A70196010E946D313093CB
:101CC000600120935F016B8D7C8D8A899B890E94C6
:101CD0004B0590935E0180935D0121E001C020E0FF
:101CE0008091590190915A01A0915B01B0915C01E2
:101CF0004C895D896E897F8984179507A607B70788
:101D000030F54093590150935A0160935B017093F1
:101D10005C016F817885888999890E944B05909331
:101D20005E0180935D019801A0E1B7E20E94AB31B2
:101D300020911B0130911C0140E050E00E946D3168
:101D4000205F384D3093600120935F0103C0222350
:101D500009F493C3C0901401D0901501E12CF12C2B
:101D60009301A0E1B7E20E94AB31A70196010E9466
:101D70006D3130936201209361019201A0E1B7E2DD
:101D80000E94AB31A70196010E946D31309364012E
:101D90002093630146CF51E66516710408F06DC0CB
:101DA00061EDA61667E0B60608F467C085E080938B
:101DB0001A0182E180931901C50186509F4FAA89BB
:101DC000BB898A179B0720F483E18093190116C011
:101DD0000091140110911501B5018A899B890E9417
:101DE0004B059C01D8010E94AB31950140E050E0C9
:101DF0000E946D3130935E0120935D01BB81B7700D
:101E0000DB2E822D806480937C005BE0F52EAA247B
:101E1000A394B12C0FEF13E0A89561E08C814ED50F
:101E2000E4B886B18D21E9F3EE85E4B980917A00BA
:101E3000806480937A0080917A0086FDFCCF809147
:101E40007800909179009801281B390BA20EB31EDF
:101E5000FA9411F7C501880F991F880F991F69E03F
:101E600070E00E9446317093640160936301809139
:101E700068018F5F80936801D4CEE4B8F5B8882DEF
:101E80000E94DE047C01822D0E94E20498878F83E9
:101E90000E9446055C01CE14DF04B8F4B301C7010B
:101EA0000E944B058C0180911401909115019C01B9
:101EB00040E050E060E871EA83E09CE10E946D310F
:101EC000D8010E94C03195011FC03A8534B94C81B8
:101ED00045B9882D0E94DE047C01822D0E94E20417
:101EE00098878F830E9446058C01C7016E147F047A
:101EF00010F486199709B8010E944B059C01A4E6CD
:101F0000B0E00E94AB31980140E050E00E946D319A
:101F10002A873B874C875D875B8157B918B86D81ED
:101F200064B965B9892D0E94DE048C01822D0E945E
:101F3000E2046C01882D0E94E204998B888B0033A7
:101F400071E1170708F0C1C1898185B9892D0E9407
:101F5000DE045C01998194B9892D0E94DE049C0104
:101F600015B881E02A8F398F0E94AA04A981A5B9EA
:101F7000892D0E94DE042A8D398D2034364008F0E8
:101F80005FC08133914108F45BC0C8018A569F4FFE
:101F9000A816B90608F054C086E080931A01809113
:101FA0004E018F5F80934E0168897989C6010E9436
:101FB0004B05909344018093430168897989C80156
:101FC0000E944B0590934A018093490114B815B8BB
:101FD000FB81F8B981E00E94AA04298124B9892DE6
:101FE0000E94DE04853F910508F055C23D8134B959
:101FF000822D0E94DE04813D934008F44CC2892D5D
:102000000E94E2048D3D924008F445C2698164B9A2
:10201000892D0E94DE048D3D924008F43CC28981E6
:1020200085B981E00E94AA0415B8892D0E94DE04BA
:10203000853F910508F02FC287E080931A012BC2DB
:102040009B8197B9AC81A4B9A5B981E00E94AA048B
:10205000B985B4B9B5B9892D0E94DE045C010E942E
:102060004605998B888B822D0E94E2049E838D8386
:102070000E9446056C01882D0E94E2048C01EEEF5F
:10208000CE16E9E0DE0608F4B4C084E080931A01BD
:102090008CE080931901B301888999890E944B05CE
:1020A0005C0180911B0190911C019C0140E050E07B
:1020B00060E871EA83E09CE10E946D31D5010E94E5
:1020C000C031960140E050E00E946D3180914E0198
:1020D000882369F080913F0190914001A0914101D6
:1020E000B091420182179307A407B50728F5209302
:1020F0003F01309340014093410150934201B801A8
:102100008D819E810E944B059093440180934301F1
:1021100028893989A0E1B7E20E94AB3120911B01E7
:1021200030911C0140E050E00E946D313093460137
:102130002093450121E001C020E080913F01909172
:102140004001A0914101B09142014A855B856C85B7
:102150007D8584179507A607B70728F540933F01AB
:10216000509340016093410170934201B7018F8108
:1021700098850E944B0590934401809343019701F9
:10218000A0E1B7E20E94AB3120911401309115011A
:1021900040E050E00E946D31205F384D30934601A1
:1021A0002093450103C0222309F476C19301A0E1E5
:1021B000B7E20E94AB31209114013091150140E04B
:1021C00050E00E946D313093480120934701920105
:1021D000A0E1B7E20E94AB3120911B0130911C01BC
:1021E00040E050E00E946D3130934A012093490154
:1021F00052C151E66516710408F067C06889798993
:1022000069347D4008F461C085E080931A0182E062
:1022100080931901C80186509F4F8A159B0520F4B1
:1022200083E08093190117C0E0901B01F0901C011E
:10223000B801C5010E944B059C01D7010E94AB313A
:10224000A889B9899D0140E050E00E946D3130932A
:10225000440120934301032D0770822D80648093F5
:102260007C001BE0EE24E394F12CA89560E08C81C7
:1022700025D3B985B4B9B5B986B18023E9F7E98129
:10228000E4B980917A00806480937A0080917A002A
:1022900086FDFCCF8091780090917900E80EF91EC0
:1022A000115019F7C701880F991F880F991F69E00E
:1022B00070E00E94463170934A0160934901809119
:1022C0004E018F5F80934E01E6C017B818B814B85E
:1022D00015B817B8F7EC6F16F1E07F0608F4BFC029
:1022E00018B82F8524B918EC0B81032907B981E0B0
:1022F0000E94AA043B8137B9892D0E94E2044297CB
:1023000010F0115099F74F8544B945B961E08C81BF
:10231000D5D2892D0E94DE046C01588D54B915B8B0
:1023200037B838B860E08C81C9D2882D0E94DE04AD
:102330000E9446055C016E8564B9882D0E94E20406
:102340008C01892D0E94DE04B8010E944B058C018E
:10235000882D0E94E2047C01892D0E94DE04B701D1
:102360000E944B0598012C5E3F4F2817390708F44F
:1023700079C018B87B8177B9898184B985B961E062
:102380008C819CD2882D0E94E2047C01892D0E94C0
:10239000DE04B7010E944B057C010817190750F4B1
:1023A0009F8594B995B9892D0E94DE049C01560140
:1023B00087010EC0A88DA4B915B837B838B860E049
:1023C0008C817CD2882D0E94DE040E9446059C01EF
:1023D000083EB3E01B0730F4C80164E670E00E94D9
:1023E000463106C0B80184E0769567958A95E1F795
:1023F000C801875991098938914188F5201731071B
:1024000070F5C501B3E096958795BA95E1F7893CDB
:10241000910510F088EC90E08A0D9B1D80179107C4
:10242000F0F46A157B05D8F480911A01833018F412
:1024300083E080931A0180911801E82FF0E0DF011A
:10244000A757BE4F9C9216968C92EE0FFF1FEB562D
:10245000FE4F118300838F5F8093180103C0682DA6
:10246000892D28D017B818B814B815B88EE20E9474
:1024700059016D96E2E10C94EC31809168018F5F17
:1024800080936801222371F3209265018092660196
:1024900090926701E7CF21E080914E018F5F80939A
:1024A0004E012223F9F220924B0190924C0180922E
:1024B0004D01D8CFA0E0B0E0E0E6F2E10C94D231DB
:1024C000782E662EA895262F30E0F901E057FE4FB2
:1024D000549033961491482F50E0FA01E057FE4F84
:1024E000D4913396C4916091680180914E0190E03F
:1024F000860F911D892B09F0DCC1A89580911E01E2
:1025000090911F01880F991F880F991F9093300198
:1025100080932F0180916D0190916E01880F991F1A
:10252000880F991F90932E0180932D018EEB80933D
:102530002B0100911801E9E8F1E06FE871E0DB019F
:10254000240F351F8A2F861B801748F441918D91E7
:1025500090E0840F911D82179307A1F758C018B817
:1025600017B9D4B9D5B918E1D12E00E010E0862D05
:102570000E94DE04982E892E872D0E94E2047C01A1
:10258000801B910B97FF03C091958195910903974B
:102590002CF0A895DA94D9F18701E9CFDD0F15B8B1
:1025A000D4B9872D0E94DE048135910580F5D5B917
:1025B000872D0E94DE048C01C7B9C8B915B854B87C
:1025C000C8E14C2EC12CD12C872D0E94DE04B82EE0
:1025D000A92E862D0E94E204EC019C012C193D09D4
:1025E00037FF03C0319521953109233031051CF5A2
:1025F000550C54B8862D0E94DE046C0180ECE81660
:1026000084E4F806E8F4053881E01807E8F08091E2
:102610001E0190911F019093300180932F018091B2
:102620006D0190916E0190932E0180932D018EE1AA
:1026300080932B013EC1A8954A9449F36E01C4CF03
:10264000003B8DE4180718F7C43A82E0D80708F079
:1026500061C088E9C816D104D0F2C8010E944605BD
:10266000AC019801A8E9B7EB0E94AB319A0140E0B8
:1026700050E00E946D3149015A01C6010E94460591
:102680009C01A8E9B7EB0E94AB31960140E050E015
:102690000E946D3108378FE0180770F4C501B4014E
:1026A000B2E0660F771F881F991FBA95D1F7620FA6
:1026B000731F841F951F12C088E7C8168FE0D806C5
:1026C000A0F4CA01B901A2E0660F771F881F991F05
:1026D000AA95D1F7680D791D8A1D9B1D25E030E074
:1026E00040E050E00E946D3108C0280D391D4A1DA0
:1026F0005B1D5695479537952795A4E6B0E00E9457
:10270000C0314B015C018CEA880E8DE0981EA11C43
:10271000B11C78C0692D782DE616F70608F4B701CC
:102720000B2D1A2D0C171D0708F48E016B016E1569
:102730007F0508F46701E0901B01F0901C01C601C1
:102740000E944B059C01D7010E94AB314B015C01FB
:10275000C6010E9446059C0140E050E0C501B4015D
:102760000E946D3149015A017801C017D10708F460
:102770007E01C0911401D0911501B701C8010E94DA
:102780004B059C01DE010E94AB31870120E030E067
:10279000A90198010E946D3188E7C8168FE0D8061C
:1027A00070F4C501B401E2E0660F771F881F991F1E
:1027B000EA95D1F7620F731F841F951F12C088E737
:1027C000E8168FE0F806B0F4CA01B90152E0660FCE
:1027D000771F881F991F5A95D1F7680D791D8A1D9B
:1027E0009B1D25E030E040E050E00E946D31490142
:1027F0005A0108C0820E931EA41EB51EB694A7945B
:102800009794879410911A01143008F000CF7A94AD
:10281000760C872D90E0EC01CD5ADE4F2881880F91
:10282000991F880F991FFC01EE55FE4F2223D1F10D
:10283000C080D180E280F380A50194012C193D096C
:102840004E095F0957FF07C0509540953095219577
:102850003F4F4F4F5F4FAAE0B0E00E94C031A70149
:1028600096012C593F4F4F4F5F4F280D391D4A1D80
:102870005B1D0E946D31232B242B252B09F0C7CE25
:10288000133019F081E080931A0182E088838091EF
:102890006F01E82FF0E0EA5AFE4F70828F5F80935D
:1028A0006F01B5CE80829182A282B38281E088835B
:1028B000AECECDB7DEB7E0E10C94EE31CF93C82FAA
:1028C000C09595B160FF02C0982B01C09C2395B9BB
:1028D00094B1982B94B982E00E94AA0484B18C230D
:1028E00084B985B18C2385B9CF910895A0E0B0E07B
:1028F000ECE7F4E10C94D9318AE0D82E9FE3B92EAD
:1029000029E0C22E17B818B815B8B4B880E00E94F4
:10291000DE048C0181E00E94E204EC0182E00E946E
:10292000E20420911A01293079F417B814B81093F1
:10293000040100930301D0930601C0930501909315
:1029400008018093070156C00430110540F4C430DB
:10295000D10558F48430910540F321E00AC021E00C
:10296000083E134018F020E001C021E0C83ED340EB
:1029700008F42260883E934008F4246027B9C0E040
:10298000D0E0A89580E00E94D6047C0181E00E94FE
:10299000E2048C0182E00E94E20424E1E21625E0D8
:1029A000F20608F4389A043135E0130708F4399A2E
:1029B000843125E0920708F43A9A36E0E316F104F0
:1029C00028F40630110510F4069738F02196C43F1C
:1029D00081E0D807B1F6C0921A0100E010E00C17B0
:1029E0001D0729F00E9499040F5F1F4FF8CFDA945A
:1029F00009F088CFCDB7DEB7E9E00C94F531CF927E
:102A0000DF92EF92FF92CF93209173013091740186
:102A10004091750150917601C09185018AE0C82EE0
:102A2000D12CE12CF12C8C2FCF5F213A96E839077D
:102A300091E04907510538F0CA01B901A701960193
:102A40000E946D31F0CF80938501A0912F01B0914C
:102A500030010E94C03128E833E140E050E00E949C
:102A60006D3120937301309374014093750150933D
:102A70007601CF91FF90EF90DF90CF900895A4E082
:102A8000B0E0E5E4F5E10C94D631982E862E8FEF78
:102A9000860F992D990F990D890F80935001E92D7B
:102AA000F0E0E057FE4F1491E62FF0E0E057FE4FC4
:102AB000F490E62FF0E0ED56FE4F049180911A015C
:102AC000813009F4A7C2409118018FE891E065E9CF
:102AD00071E0DC012A2F281B2417A0F42D91281166
:102AE0000EC09D0127503109F9012081291107C02D
:102AF000FB01208131812C3D354008F48BC26E5F93
:102B00007F4FE8CF1092800110927F0181EF809378
:102B10008501109273011092740110927501109248
:102B20007601E4DE18B807B9F4B8F5B8892D0E942B
:102B3000E2047C01882D0E94E204E81AF90A14B824
:102B40001092520110925101C12CD12C809151014F
:102B500090915201843F914050F515B914B90E94EB
:102B6000930414B815B80E949A04A895892D0E9460
:102B7000E2046C01CE18DF0880915101909152015E
:102B80008E37910528F02BE4C216D1040CF43EC216
:102B90005DE2C51651E0D50684F480915101909113
:102BA000520101969093520180935101CFCFFDE2E3
:102BB000CF16F1E0DF060CF429C28091510190910B
:102BC0005201892B21F0C60100E010E006C025E18A
:102BD000C21625E0D206BCF385C020915101309188
:102BE00052012017310758F00E949404892D0E9449
:102BF000E2048E199F09A8950F5F1F4FEECF860143
:102C0000081B190B1016110694F4093C11050CF061
:102C1000FDC128EE33E0D8010E94BA319601442765
:102C200037FD4095542F0E946D31790102C0E12C8F
:102C3000F12CA0905101B09052015FEFA51AB50A96
:102C4000C501A0E0B0E080937B0190937C01A0934C
:102C50007D01B0937E01C601800F911F27D29C0198
:102C6000D5010E94AB3160937B0170937C0180930E
:102C70007D0190937E016093730170937401809342
:102C800075019093760187EF80938501B8DE2091DE
:102C900073013091740140917501509176018BE17F
:102CA00093E029833A834B835C830E944B32A8EEE6
:102CB000B3E0A81BB10987FDB39529813A814B8107
:102CC0005C810E94CA3124E630E040E050E00E947E
:102CD0006D312093730130937401409375015093CB
:102CE000760152C103DE15B887E087B918B8F12E16
:102CF000FF0CF4B880E480937B0084E580BF892DCD
:102D0000806480937C0086E180937A000E949D0419
:102D10001092520110925101109280001092850081
:102D20001092840087E286BB81E280936F0081E08D
:102D300080937001F5B890911A01809381009530CD
:102D400059F481E090E0092C01C0880F0A94EAF759
:102D50008095877087B901C007B9F89483B7817FE0
:102D600083BF80917001882389F083B7816083BF1E
:102D70007894889583B78E7F83BFF894A8958091C7
:102D80005101909152018034964059F778941092F5
:102D90008100E0908600F090870010926F0086E935
:102DA00080937A0014B815B8892D0E94E20420910E
:102DB000330130913401821B930B0C969093880160
:102DC000809387018091510190915201803293400C
:102DD00008F01CC1809151019091520190937E01A5
:102DE00080937D01F0927C01E0927B0184EF8093DF
:102DF0008501809151019091520182349105C8F072
:102E000060917B0170917C0180917D0190917E01A8
:102E100024E630E040E050E00E946D3120937B01D9
:102E200030937C0140937D0150937E0186EF809327
:102E30008501A0917101B091720120917B013091C7
:102E40007C0140917D0150917E010E94C03120E2C1
:102E500033E040E050E00E946D3120937B013093DD
:102E60007C0140937D0150937E0120937301309348
:102E700074014093750150937601C1DD8091850105
:102E8000843F09F071C0C0907301D0907401E0904C
:102E90007501F090760120EAC2162FE0D206E10417
:102EA000F104C0F4A70196012C543F4F4F4F5F4FE0
:102EB00060EA7FE080E090E00E946D312C0D3D1DC6
:102EC0004E1D5F1D20937301309374014093750173
:102ED00050937601C0907301D0907401E090750119
:102EE000F0907601C114D10451E0E506F10428F414
:102EF000D092B301C092B20106C081E090E09093FD
:102F0000B3018093B2018091500190E0885C9C4FA6
:102F10000E944B32482F50E060E070E04C155D0598
:102F20006E057F0568F4C41AD50AE60AF70AC0924E
:102F30007301D0927401E0927501F092760114C091
:102F400084E1C80ED11CE11CF11CC416D506E606AE
:102F5000F70610F40E94A70A1092730110927401F0
:102F6000109275011092760114B9809173019091BD
:102F70007401A0917501B09176014997A105B10541
:102F800008F444C0E12CF12C80911801882321F031
:102F900080911A018530D1F588E080931A01209143
:102FA0008501809186018217BCF028132FC04091C3
:102FB0007301509174016091750170917601809157
:102FC000770190917801A0917901B0917A018417ED
:102FD0009507A607B707D0F480917301909174010B
:102FE000A0917501B091760180937701909378015B
:102FF000A0937901B0937A0120938601F092820127
:10300000E0928101809283019092840117B818B8F0
:1030100014B815B82496ECE00C94F2311F920F927C
:103020000FB60F9211248F939F93B59904C080918E
:103030007001811109C0B59B10C0809186009091EC
:1030400087008A3F910548F4809151019091520187
:10305000019690935201809351019F918F910F900F
:103060000FBE0F901F9018951F920F920FB60F92E0
:1030700011248F939F9310927001B09B10C0809188
:103080008600909187008A3F910548F48091510114
:1030900090915201019690935201809351019F911A
:1030A0008F910F900FBE0F901F9018950F9221E0F7
:1030B0008C32920710F48CE291E08C52914069E1DD
:1030C00070E00E94463199E16B3210F0982F6BE26C
:1030D000981BEDEBF2E0E60FF11DE60FF11D9F935B
:1030E000CF010E944B32482F3196CF010E944B32C4
:1030F000582F3196CF010E944B32282F3196CF01A5
:103100000E944B32382F6F91421B530B649FC001BA
:10311000659F900D11240C9669E170E00E94463184
:10312000620F731FCB010F900895A0E0B0E0EBE9B0
:10313000F8E10C94D63188E893E190931F018093D5
:103140001E019093300180932F018EEB80932B0111
:1031500018B880E187B90E94A20417B884E00E94E1
:10316000DE04AC018B5C9840833F9140A0F481E089
:1031700080933A0120912F0130913001AFEBB9E0FB
:103180000E94AB319A0140E050E00E946D313093D3
:103190001F0120931E0180911E0190911F019093A9
:1031A000300180932F018EE00E94E2048EE00E94A5
:1031B000DE0490933401809333010E94B20596DBC4
:1031C00018B8C1E0C7B985E185B9C4B980E00E94EB
:1031D000DE047C0102E007B914E014B981E00E942A
:1031E000DE04E80EF91E17B980E1D82ED4B882E0CB
:1031F0000E94DE04E80EF91E15B8C8B9C7B9C4B9F3
:1032000080E00E94DE040E944605EC0108B907B97F
:1032100014B981E00E94DE040E944605C80FD91F40
:1032200018B917B9D4B882E00E94DE040E9446059E
:10323000C80FD91F17B818B814B880912F019091F2
:1032400030014C01880C991C880E991E8E189F081D
:103250008C1A9D0AA12CB12C9701A0E9BAE10E9419
:10326000AB31A50194010E946D3169017A0130935F
:103270003901209338019E01A0E9BAE10E94AB31E7
:10328000A50194010E946D313093320120933101E8
:103290002057354E30931C0120931B0180E7C81A3C
:1032A00085EED80AD0921501C09214018EE1809368
:1032B0002B01CDB7DEB7ECE00C94F231FF920F9307
:1032C0001F93CF93DF93C82FD62FF42E0E94640153
:1032D00086E291E00E94D10104D26D2F8C2F0E94D2
:1032E000BB29C1E00091B6011091B7012091B8014E
:1032F0003091B901011511052105310509F0C0E032
:103300008091010187FD02C0C11104C082E291E0F9
:103310000E94D1018D2F0E946401C11106C00E943C
:103320006701809156010E94F302FF2049F08091CD
:103330003B018D3028F490E0845C9C4F0E94D101C9
:1033400080E00E947402C1111BC06091B6017091AF
:10335000B7018091B8019091B90103E028E447EFEB
:103360000E94760385E391E00E94D1018DE493E011
:103370000E94533222E046E464EF0E9465041AC0C2
:10338000809156010E94F302809101018E3F94F4D6
:103390008FE491E00E94D1016091090170910A01CE
:1033A00080910B0190910C0103E028E44091010110
:1033B0000E9476038091AE019091AF01A091B0017F
:1033C000B091B101892B8A2B8B2BF1F080E00E9408
:1033D00074026091AE017091AF018091B001909143
:1033E000B10104E028E440E00E94760380E391E02C
:1033F0000E94D10123E040E26FEF8091B4019091EF
:10340000B5010E94650407C080E00E9454028091CB
:103410003E01811102C00E944E02CDB7DEB7E5E049
:103420000C94F9310F931F93CF93DF93D82F0E9401
:103430008301809183010E9464018BE691E00E94E8
:10344000D10122D5609183018091840175D390933D
:10345000800180937F0111E08A3F9F4F08F010E0C8
:10346000C1E02091810130918201232B09F4C0E059
:10347000112371F0CC2341F021E030E0D11102C0E2
:1034800020E030E0232B21F087E291E00E94D1017F
:10349000809184010E946401DD2359F090913B01E9
:1034A0008DE0891B0E946A0187E890E00E94D101AB
:1034B00015C02091810130918201232B69F082E5B2
:1034C00091E00E94D10122E045E26FEF80918101FD
:1034D000909182010E9465040E944E020E948A011E
:1034E00060917701709178018091790190917A01D2
:1034F00004E026E4409186010E947603112369F0DE
:103500008AE591E00E94D10122E044E06EEF8091D3
:103510007F01909180010E9465040E944E02DD238C
:1035200091F0CC2381F080E00E94740283E591E069
:103530000E94D10122E045E26FEF809181019091DC
:1035400082010E9465040E944E02DF91CF911F917B
:103550000F9108958F7051F488EC0E94AA040E9484
:103560008A010E94050B88EC0C94AA0408958F3000
:1035700021F490913501913011F08F5F089580E032
:103580000895CF9382E990E00E94B423C0E00E94A6
:103590005A0660E082E00E945A1262E080E00E94D7
:1035A0005A120E94830180916F01882329F041E023
:1035B00062E080E083DE0FC082E990E00E94D101EA
:1035C00086E493E00E94D1010E948A018FE30E9469
:1035D00059010E944E028C2FBDDF88EE93E00E94BD
:1035E0005405811105C08C2FC2DFC82F8A3F78F2A5
:1035F0000E94B201CF9108950F931F93CF93DF9351
:10360000C0E0D8E012EF0DE00E945A0660E082E0D0
:1036100036DAD0931A0180918501843FE1F440911C
:103620007301509174016091750170917601443677
:1036300051056105710578F440E060E082E00E9488
:103640003827609373017093740180937501909390
:1036500076011093850180918501823FACF08093C3
:1036600086014091730150917401609175017091D0
:1036700076014093770150937801609379017093BC
:103680007A0181E0CFDE18C00E9483018BE890E0D0
:103690000E94D10180913B01902F981B892F0E949D
:1036A0006A0187E890E00E94D1010E948A018FE3BD
:1036B0000E9459010E944E028C2F4CDF80ED97E052
:1036C0000E945405811106C08C2F51DFC82F8A3FFC
:1036D00008F49ACF0E94B201DF91CF911F910F9110
:1036E0000895A3E1B0E0E7E7FBE10C94D03182E07C
:1036F0008093010180911A01813009F019C28091F3
:103700006F01813009F014C22090560124E0229EFE
:10371000F0011124EE55FE4F80819181A281B38189
:10372000893032E59307A105B10508F001C29B8BF2
:103730008A8B312C61E0822D631528F00E94E9020A
:10374000B82EA92E03C00E94E9025C01EA2DF0E028
:10375000ED56FE4F7490EB2DF0E0E057FE4FE491F4
:1037600015B818B88A899B89803F910590F430FC80
:1037700010C0009114011091150100591A4181E007
:1037800090E00B2C01C0880F0A94EAF7872987B9CB
:1037900006C0E4B977B8009114011091150144E115
:1037A000642E8B2D0E94DA044C018A2D0E94E204C3
:1037B00024E08216910410F4049710F06A9489F7BB
:1037C00030E430937B0064E560BF8B2D8064809390
:1037D0007C0086E180937A00E12CF12C109280002D
:1037E000109285001092840087E286BB0E949D049F
:1037F000932D9170998B30FC05C081E880938100F6
:1038000078B808C078B80E94A60480E286BB81E838
:103810008093810046B345FF12C018B81092810012
:1038200080E286BB80918600909187006C01209198
:103830008400309185008217930768F013C040FF21
:10384000E9CF21E026BBA895C70101967C01803510
:10385000910501F7E2CF40FF05C031E036BB6FEFC5
:10386000E61AF60A86E980937A0034E1732E8B2DEE
:103870000E94DA044C018A2D0E94E20424E08216A0
:10388000910410F4049710F07A9489F7809038012D
:10389000909039018A899B89880E991E800E911E0D
:1038A000209116013091170100399AE11907B0F4FF
:1038B00061EEC616D104E104F10438F4C60165E0F6
:1038C00070E00E944631645101C069E1285231091B
:1038D000261B310967FD339586E009C0C40160EB02
:1038E00076E30E94463187E0860F285D3F4F90E0E7
:1038F000A0E0B0E08C159D05AE05BF0528F4C81A00
:10390000D90AEA0AFB0A03C0C12CD12C76018989A5
:10391000882329F092E2C90ED11CE11CF11C60E55C
:10392000E616F10418F0C12CD12C76018BE0C816F4
:10393000D104E104F10428F091E0C91AD108E108AA
:10394000F10840912F0150913001A12CB12CA8EE2B
:10395000B3E00E94AB312B013C019801DA010E94D7
:10396000AB31A50194010E946D3144275527C30155
:10397000B2010E946D31C9010E940A06FC01A50135
:103980009401C701B6010E942B314B015C01BF01BC
:1039900080E090E023E0660F771F881F991F2A952B
:1039A000D1F76B5F7F4F8F4F9F4F2AE030E040E0B1
:1039B00050E00E946D31C501B4010E946D31832D2C
:1039C00090E0E1E0F0E0EC0FFD1F64E0369EE00DDA
:1039D000F11D11242083318342835383698961114E
:1039E00017C06CE0C616D104E104F10488F0FC01B4
:1039F0003196EE0FFF1FEE0FFF1F81E090E08C0F5E
:103A00009D1FE80FF91F2083318342835383339432
:103A1000A895339493E0931508F08CCE18B884E001
:103A20000E94AA0421E04D815E816F8178858981A1
:103A30009A81AB81BC8184179507A607B70708F068
:103A400020E04D855E856F85788989859A85AB856F
:103A5000BC8584179507A607B70710F032E001C0B0
:103A600033E0E22FF0E0EE0FFF1FEE0FFF1F81E0CB
:103A700090E08C0F9D1FE80FF91FDC0194E0399F47
:103A8000A00DB11D11244D915D916D917C918081AE
:103A90009181A281B381481759076A077B0708F013
:103AA000322FE1E0F0E0EC0FFD1F24E0329FE00D4B
:103AB000F11D112480819181A281B381809309013C
:103AC00090930A01A0930B01B0930C0130FD09C043
:103AD0002A893B89203F310520F48BEF8093010137
:103AE00017C02CEF20930101BC01CD016B5F7F4F0C
:103AF0008F4F9F4F2AE030E040E050E00E946D3150
:103B00002093090130930A0140930B0150930C015B
:103B10008091090190910A01A0910B01B0910C01D3
:103B2000892B8A2B8B2B11F41092010117B814B832
:103B30006396E2E10C94EC31AEE1B0E0E2EAFDE143
:103B40000C94D031662EB82E860F898320911A01ED
:103B5000283059F520917701309178014091790111
:103B600050917A0157FD15C01091860109C0CA0114
:103B7000B9012AE0312D412D512D0E946D311F5F79
:103B8000173FACF391F4243160E03607410551054D
:103B900018F48FEF9FEF45C1173F39F480E02817E5
:103BA0008DE738074105410510F020E03DE72C8BFB
:103BB0003D8B26EDA22EE3E9F1E0E60DF11D8591A6
:103BC00080608E87E3E9F1E0EB0DF11D8591806067
:103BD0008F87E0E9F1E0E60DF11D7590E0E9F1E095
:103BE000EB0DF11DC59090EC692AB92A81E0E82E11
:103BF000F12C012D112D8E831F82188619861A86AD
:103C00001B861C861D86188E198E1B8E1A8E0E948E
:103C1000761480E088B960927C000E949E043F8503
:103C200037B975B874B852E05A95F1F70000000042
:103C300014B815B8DD243E8537B975B874B86092EC
:103C40007C00A895A0927A0080917A0086FDFCCF36
:103C50002090780030907900B0927C004C2DE5D017
:103C60002091780030917900288B398B3F8537B9C6
:103C7000C5B8C4B8A895B0927C00A0927A00809193
:103C80007A0086FDFCCF6091780070917900609297
:103C90007C00472DCAD0409178005091790014B82B
:103CA000CB01820D931DE80EF91E011D111DEA8244
:103CB000FB820C831D8388899989840F951F2E812F
:103CC0003F8168857985280F391F611D711D2E83FD
:103CD0003F836887798722E32417150650F075B86B
:103CE00074B80E94A80414B815B8888D8395888F7D
:103CF00007C0483E73E0570718F08A8D83958A8F76
:103D0000888999892817190660F03E8537B9C5B8A2
:103D1000C4B80E94A80414B815B8898D8395898FFA
:103D200007C0883E73E0970718F08B8D83958B8FC3
:103D3000D3945D2D5F3F49F05F3731F45C2D550F13
:103D4000C50E572D550F750E76CF40903801509007
:103D50003901440C551C9201E4E0240D351DEA950F
:103D6000E1F72901570168016E807F80888499847A
:103D700020911A012830C1F46C897D89812D912D03
:103D800065507040804090409B01AC010E942B31F7
:103D90009B01AC0160E779E786E190E00E946D311C
:103DA000621A730A840A950AA614B704C804D904CF
:103DB00028F46A187B088C089D0803C066247724C1
:103DC0004301B20180E090E09301A4010E942B31F5
:103DD0009501A6010E946D3187E193E07981870FFB
:103DE000911D0E944B32682EC90160E170E00E9473
:103DF0004631260F371FC9016816190618F48619AF
:103E000091090FC08C5E9F4F8615910540F48C89F7
:103E10009D89843981E1980710F00E94A70A812DBD
:103E2000912D6E96E2E10C94EC311092810010928B
:103E3000800010926F0010928B0010928A0057E061
:103E400056BB5FEF509385005093840055E050932C
:103E50007B0056EB50937A0051E05093810058E27A
:103E60005A95F1F7000045B944B955E05A95F1F774
:103E7000000014B815B81092810080917A0084FF78
:103E8000FCCF80937A000895A4E0B0E0EAE4FFE17B
:103E90000C94D8318091810190918201892B09F095
:103EA000B2C0E0918301F0E0ED56FE4F0491E09145
:103EB0008401F0E0E057FE4F14910E94761418B888
:103EC00015B807B914B9809184010E94E2045C011D
:103ED000009186018CE0800F843008F094C0015F6F
:103EE0008091770190917801A0917901B0917A0148
:103EF0002AE0C22ED12CE12CF12CBC01CD016B5F4C
:103F00007F4F8F4F9F4FA70196010E946D310F5F2A
:103F1000073019F0DA01C901F0CF293883E13807F9
:103F20004105510508F06FC02530310508F46BC01C
:103F300015B914B900E010E00217130768F42983DB
:103F40003A834B835C830E94A4040E5F1F4F5C8105
:103F50004B813A812981F0CF14B815B8A89585E036
:103F600080932B018091840129833A834B835C8366
:103F70000E94E20429813A814B815C81A816B9062E
:103F800020F47C01EA18FB0802C0E12CF12C00E0CF
:103F900010E00217130768F429833A834B835C838C
:103FA0000E94A4040F5F1F4F5C814B813A812981DD
:103FB000F0CF809184010E94E2042EE120932B0136
:103FC000A895A816B90618F48A199B0902C080E0C2
:103FD00090E08E159F0588F49701281B390B69F036
:103FE000A4EFB1E00E94AB31970140E050E00E94A5
:103FF0006D3130938201209381010E94761417B8AD
:1040000018B814B815B82496EAE00C94F4311F924D
:104010000F920FB60F9211248F9386E085BD8F917A
:104020000F900FBE0F901F9018951F920F920FB612
:104030000F921124A8951092810015BC0F900FBE0D
:104040000F901F9018951F920F920FB60F92112488
:104050002F933F938F939F9380916B0190916C016D
:10406000892B11F481E085BD20916B0130916C01A9
:104070008091690190916A012817390730F015BCC9
:1040800080916D008F7E80936D0080916B01909187
:104090006C01019690936C0180936B019F918F91BD
:1040A0003F912F910F900FBE0F901F9018958A305F
:1040B00008F08A50811103C080E292E02CC0813068
:1040C00019F487EF91E027C0823019F48CEE91E06B
:1040D00022C0833019F48DE990E01DC0843019F4BA
:1040E00082E990E018C0853019F48BE890E013C0A5
:1040F000863019F48BED91E00EC0873019F48CEC0A
:1041000091E009C0883019F48EE092E004C0893053
:1041100021F483E092E00E94D1010C944E020895B4
:104120000F93CF938DE990E01FD3C0E010921A0156
:1041300060E082E035D380911A018830D1F50E9489
:10414000830183E40E9459010E947B016091770101
:10415000709178018091790190917A0103E026E4D1
:10416000409186010E9476030E944E026091830175
:1041700080918401E1DC9093800180937F010E9413
:104180008A018BE591E00E94D10180917F0190919D
:1041900080018A3F2FEF920730F422E044E06EEF77
:1041A0000E94650403C08FE30E9459010E944E02E1
:1041B0000AC00E9483018DE990E00E94D1010E9413
:1041C0004E020E947B028C2FC5D988EE93E00E949C
:1041D0005405811106C08C2FCAD9C82F8A3F08F414
:1041E000A5CFCF910F9108950895A5E0B0E0EBEF32
:1041F000F0E20C94D03187EF91E0B6D280E1809369
:10420000800010926F0081E090E09093890080938D
:10421000880010928B0010928A0083E086BB109277
:10422000820088E08093810015B881E184B918B8D4
:1042300081E087B9229A89E080938100212C1B823A
:104240002AE0298333243394812C912C54018394C4
:1042500011E1822D90E00A966EE170E00E945A31E1
:10426000662E562E3B81631789F00E94830187EFEB
:1042700091E00E94D101712C751428F48EE20E9405
:1042800059017394F9CF0E944E026B821231C8F02B
:10429000C701B601A50194010E946D312B013C01BB
:1042A000832D69810E943A31A92FB0E0A5019401C4
:1042B0000E94C0316B017C01C40CD51CE61CF71CAC
:1042C0000CC0832D69810E943A31A92FB0E0A5016D
:1042D00094010E94C0316B017C010E948A01898196
:1042E000381208C081E0123108F480E08A8381111D
:1042F00006C001C01A82163120F48EE303C08CE39D
:1043000001C082E50E945901412FC701B6010E94F8
:104310007A04C701B6017E5E85489F4FA7019601CA
:10432000220F331F441F551F0E946D31CA014F3F9A
:10433000510539F030F08DE08093810080E094E009
:104340001FC04034510530F08CE08093810080E044
:1043500091E016C04830510530F09BE09093810009
:1043600080E490E00DC0892B31F0EAE0E093810019
:1043700088E090E005C0F9E0F093810081E090E0F2
:104380002C01612C712CCA01B901A30192010E9478
:104390006D3121503109309389002093880080913C
:1043A000880090918900892B31F421E030E030932E
:1043B00089002093880080918800909189009D83D6
:1043C0008C8360E079E08DE390E0A30192010E948C
:1043D0006D31A4E6B0E00E94C031EC81FD813196E0
:1043E0009F0140E050E00E946D3129013A01A4E6AE
:1043F000B0E0A70196010E94C031461A570A680A28
:10440000790A02E228E44EEFC301B2010E9476036A
:104410008AE70E9459010E944E0280ED97E00E94B7
:104420005405882309F442C0883C58F0109281005A
:104430001092800017B814B822982596E2E10C94E7
:10444000EC31813578F1FA81FF23D9F01150C501A3
:10445000B4012AE030E040E050E00E946D314901B3
:104460005A01C701B6010E946D31CA01B9012AE0A3
:1044700030E040E050E00E946D31362E2AE0298382
:1044800030C0163128F51F5F163111F435E139833C
:10449000AAE0B0E0A50194010E94C0314B015C018B
:1044A000312C1FC08B3008F03394212C832D90E0E9
:1044B000E9816E2F70E06F5F7F4F0E945A31382E76
:1044C000822D55D8282EFFEEF81708F0C2CEAECFB9
:1044D0002AE0298333243394812C912C5401839432
:1044E00011E1212CB6CEA4E0B0E0E9E7F2E20C94B1
:1044F000D4318CEE91E038D183E280938000109229
:104500006F008FEF90E090938B0080938A0083E0A0
:1045100086BB1092820015B881E184B918B881E099
:1045200087B9229A81E090E0909389008093880077
:1045300089E08093810010E000E0A2E37A2E612CF4
:10454000B4E6CB2ED12CE12CF12C88248A9483E084
:10455000982EA12CB12C7016E9F183E6871510F482
:10456000ECE97E0E272D30E0AFEFB3E00E94AB31D7
:104570006E5C7F4F8F4F9F4FA70196010E946D3158
:1045800030938B0020938A0029833A834B835C838A
:104590000E948A01A8EEB3E029813A814B815C81B7
:1045A0000E94C03161507E4F8F4F9F4FA5019401F3
:1045B0000E946D31DA01C90125E045E26FEF0E94EA
:1045C00065040E944E02F8E2F61518F48CE30E948E
:1045D000AA04072D80E496E00E945405682E82E824
:1045E000861558F417B8109281001092800014B804
:1045F00022982496EEE00C94F031E2E3E61518F4EC
:10460000FAE07F0E03C0662011F0739410E0812F52
:104610000E94B71A182F803F08F49DCFE3CF0F9365
:104620001F93CF93DF938BED91E09ED08BE193E0CE
:104630000E944B32182F00E00E948A01C12FDD2713
:10464000C7FDD09517FF0BC08DE20E94590123E0F2
:1046500045E26FEF882799278C1B9D0B04C023E050
:1046600045E26FEFCE010E9465040E944E0280E495
:1046700096E00E945405882331F0823888F489320C
:10468000C8F01F5F00E0113514F0155603C01C3E42
:104690000CF41B59802F0E94B71A082F803F60F23C
:1046A000612F8BE193E00E945832DF91CF911F91EF
:1046B0000F9108951150E6CF813011F496CD0895F1
:1046C000823011F410CF0895833011F429CD08956C
:1046D000843019F40C94C11A0895853029F40E948D
:1046E000B2010C94FC1A0895863011F498CF089505
:1046F000873021F481E10C94DC060895883011F4B0
:104700008EC10895893011F40C9485060895CF93D5
:10471000DF938BE292E028D0D0E0C0E00E948A01D3
:104720008C2FC5DC80E49FE10E9454058111D0E00C
:1047300090913501913009F4D0E0823340F0CC23E0
:1047400079F08C2FB9DF8BE292E00ED002C081119C
:10475000CF5FDF5FD43620F4CA3000F3CA50DECF1B
:1047600080E0DF91CF910895A2E0B0E0EAEBF3E2C0
:104770000C94DF3189839A830E94B20189819A81E6
:104780000E94D10114E682E00E94AA044F9902C05F
:104790001150C9F70E948A012296E3E00C94FB3184
:1047A000A4E0B0E0E6EDF3E20C94D531882E762E4D
:1047B000E62FF0E0ED56FE4F0491E82FF0E0E057D1
:1047C000FE4FB490E62FF0E0E057FE4F14911092A8
:1047D000800110927F011092730110927401109267
:1047E00075011092760187EF809385010E947614FF
:1047F00018B807B914B915B9882D0E94E2048C01C4
:10480000872D0E94E204081B190B14B81092520164
:104810001092510120E030E09CE2E92EFF24F39455
:104820004AE0A42E54E6952E8091510190915201B8
:10483000843D904308F069C0B5B8809151019091D2
:104840005201892B89F06701C21AD30A6091510184
:1048500070915201A29EC001A39E900D11240E944E
:104860004631C616D70650F4B4B80E949D0414B859
:104870008091510190915201019628C0809151017F
:10488000909152010B97C8F06091510170915201C3
:10489000929EC001939E900D11240E9446316C158A
:1048A0007D0558F4B4B80E94920414B88091510167
:1048B000909152018C599F4F09C0B4B80E9498043E
:1048C00014B880915101909152010A96909352012F
:1048D0008093510115B80E949F04A895882D0E94CD
:1048E000E2049C01201B310B8091510190915201F7
:1048F0008B31964020F0253231050CF488C02D32E2
:1049000081E038070CF490CF05C02D32F1E03F076D
:104910000CF47DC08091510190915201019729F4CE
:10492000253145E034070CF072C00091510110911F
:104930005201000F111FA80160E070E040937B015D
:1049400050937C0160937D0170937E01C90168E200
:1049500070E00E945A31C901860F971F0E945618B5
:104960009C01D8010E94AB3160937B0170937C0164
:1049700080937D0190937E01609373017093740125
:1049800080937501909376010E94FF14209173012A
:104990003091740140917501509176018BE193E063
:1049A00029833A834B835C830E944B32A8EEB3E0A9
:1049B000A81BB10987FDB39529813A814B815C81A0
:1049C0000E94CA3120E137E240E050E00E946D31A0
:1049D00020937301309374014093750150937601D5
:1049E00088E080931A0120937701309378014093F7
:1049F000790150937A01809185018093860110920C
:104A0000820110928101709283018092840117B813
:104A100018B814B815B82496EDE00C94F131A0E064
:104A2000B0E0E5E1F5E20C94DB310E94B20183E1F4
:104A300091E00E94D1010E948A018FEC90E00E94D7
:104A4000D10189E193E00E944B3223E040E26EEF16
:104A500090E00E9465048AE193E00E944B3223E0DB
:104A600040E26EEF90E00E94650488E193E00E94CE
:104A70004B3223E044E06EEF90E00E94650488E949
:104A80009AE30E9454050E94B20188EC90E00E94D3
:104A9000D10123E044E06FEF809131019091320128
:104AA0000E9465040E948A0181EC90E00E94D1017D
:104AB00023E044E06FEF80913801909139010E942A
:104AC000650488E99AE30E9454050E94B2018DEBC7
:104AD00090E00E94D1018DE393E00E944B3290E080
:104AE00042970E94C0028EE393E00E944B3290E016
:104AF00042970E94C0028AE393E00E944B3290E00A
:104B000023E046E464EF42970E9465040E948A0114
:104B100083E00E946A0189E393E00E944B3290E0B7
:104B200042970E94C0028CE393E00E944B3290E0D7
:104B300042970E94C00288E393E00E944B3290E0CB
:104B400023E046E464EF42970E94650488E99AE313
:104B50000E9454050E94B2018BE290E00E94D101B4
:104B60008FE393E00E9453320E94AC020E948A01BC
:104B700084E290E00E94D10181E493E00E944B32F4
:104B8000992787FD90950E94AC0260E081E00E9429
:104B9000A201F12CDF2CDD0CDF0CE12CDA94FE14E9
:104BA000D9F1CD2DCE0DD0E0CC0FDD1FCE01865D2D
:104BB0009C4F0E9453328C01CE01845E9C4F0E9418
:104BC0005332EC018091A101882339F088E99AE3FE
:104BD0000E9454050E94B20103C080E00E9454026A
:104BE00085EB90E00E94D1018F2D0E9464018AE341
:104BF0000E9459018E2D0E94640180E00E9454029F
:104C000023E040E26EEFC8010E94650423E046E421
:104C100062EFCE010E946504E39483E0E812BFCF07
:104C2000F394F812B7CF88E99AE30E945405CDB700
:104C3000DEB7E7E00C94F731A1E8B0E0E2E2F6E29B
:104C40000C94D63110918901D0908F01F090900191
:104C5000A12EB12CC50180579E4F5C01912F90640D
:104C6000992EEF2DF0E0E057FE4F8491F501C490AE
:104C7000C82AF5012491220F282B90927C00ED2D5B
:104C8000F0E0ED56FE4FE491E7B918B815B814B846
:104C9000CF57DF4F2883C158D0400E949E04CF5782
:104CA000DF4F2881C158D040E22E022F40E4BE01E0
:104CB0006F5F7F4F80E090E10E943400DE015596E7
:104CC00030E02AE08F2D90E0ED2DF0E04D915D91E8
:104CD0005695479556954795042F341728F42F5F1E
:104CE000203419F0342FF2CF032F302F369536951C
:104CF0003695402F431B342F203409F452C0DE0177
:104D00001196A20FB11DA20FB11D4D915C91569548
:104D1000479556954795431708F041C022E02093E8
:104D20001A01D0924D0110934B01F0924C01E80F03
:104D3000F91FEE5AFE4F10826D2D8F2D0E945A12D0
:104D400080914D01E0914C01F0E0E80FF11DEE0F74
:104D5000FF1FEE0FFF1FE256FE4FC080D180E280A2
:104D6000F3800352202F30E0A4E6B0E00E94AB3184
:104D70004B015C019E2D8D2D7C2D6627A701960190
:104D80002057354E4F4F5F4F0E946D31C501B40122
:104D90000E946D3130934A012093490109C02F5F71
:104DA000ABCF80918F01D81203C0DF2CF82E59CFE2
:104DB000CF57DF4FECE00C94F23108958F929F9221
:104DC000AF92BF92CF92DF92EF92FF92AC016C0153
:104DD000E12CF12C560199248824E52FFF279A0114
:104DE000DA010E94AB319C013695279536952795BF
:104DF000C9019695879596958795BC017695679597
:104E00006E9FD0016F9FB00D7E9FB00D1124B90130
:104E1000681B790BCB019A0164E0369527956A955A
:104E2000E1F72E0F3F1F240F351F40E050E0280F01
:104E3000391F411D511DCD0173E0969587957A95D7
:104E4000E1F7A81BB90B2A0F3B1F411D511DC701DC
:104E5000B6010E942B31680D791D8A1D9B1DFF90A4
:104E6000EF90DF90CF90BF90AF909F908F9008957C
:104E7000A6E0B2E0EEE3F7E20C94D031782ECE5FFC
:104E8000DD4F6883C250D240642E0E947614E72D15
:104E9000F0E0E057FE4F1491B12EBB0CCE5FDD4F1A
:104EA0002881C250D240E22FF0E0ED56FE4FE4914F
:104EB000E7B915B814B9872D806480937C000E94EF
:104EC0009E04362D3170CF5FDD4F3883C150D24004
:104ED00060FE02C0F12E01C0FB2CB0E2DB2E80E0B0
:104EE00090E0C12EEF2C0B2D2F2D44E7BE016F5FFC
:104EF0007F4F0E943400DA9419F080E490E0F1CF03
:104F000014B88E01095B1F4FA3E2CA2ED12CE12CED
:104F1000F12C812C912C5401212C312C2101CF5FBB
:104F2000DD4F6881C150D240F801808191816623B4
:104F300029F020E030E8281B390BC9013FDF9C0134
:104F400040E050E0220E331E441E551EC701B6013C
:104F50000E942B31860E971EA81EB91EFFEFCF1A96
:104F6000DF0AEF0AFF0A0E5F1F4F24E7C216D104C3
:104F7000E104F104A1F6C201B10121E530E040E015
:104F800050E00E946D31ABEBB7E10E94C031A5014A
:104F90009401261B370B480B590BF4E056954795A7
:104FA00037952795FA95D1F760EE7DEC81EC9FE877
:104FB0000E946D3161FC47C0CE5FDD4F8881C250D9
:104FC000D2408150972D990F970D890F90E0CF5FB8
:104FD000DD4F6881C150D240880F991F662319F0B8
:104FE000845E9C4F02C0865D9C4FCD5FDD4F288361
:104FF000C350D240CC5FDD4F3883C450D240CB5F2A
:10500000DD4F4883C550D240CA5FDD4F5883C6503C
:10501000D2400E945332CD5FDD4F2881C350D24031
:10502000CC5FDD4F3881C450D240CB5FDD4F48812B
:10503000C550D240CA5FDD4F5881C650D240281BB0
:10504000390B41095109CA01B901CA5FDD4FE2E1DB
:105050000C94EC31A0E0B0E0E0E3F8E20C94D53140
:1050600010E0712E770C710E00E07A94101709F49D
:1050700040C042E0602F812FFBDE4B015C0143E02A
:10508000602F812FF5DE6B017C010E94B20185EB60
:1050900090E00E94D1010E946701812F0E9464016B
:1050A0008AE30E945901802F0E9464010E946701D7
:1050B0000E948A0124E040E26EEFC4010E94650470
:1050C00024E046E462EFC6010E946504C72DC00FCC
:1050D000D0E0CC0FDD1FB401CE01865D9C4F0E9455
:1050E0006632B601CE01845E9C4F0E9466320E94F9
:1050F0004E020F5F033009F0B9CF1F5F133009F084
:10510000B0CF0E94830185EB91E00E94D1010E9403
:105110004E0288E20E94AA04CDB7DEB7EDE00C94FF
:10512000F131A3E1B0E0E7E9F8E20C94D0319B83E0
:105130008A8379876887CC24C394AC2CB12C63E034
:10514000C69EA00111245D874C87F501EE0FFF1F5D
:10515000EE0FFF1FFF87EE87612C20E4722E1A8A64
:10516000412C512C1F821E82812C912C212C312C00
:105170001D821C82D12C1982E0E0F0E020E030E0BA
:1051800041E050E06FEF70E06A197B09798B688B22
:105190006981062F10E088899989081719070CF092
:1051A000B6C0B8016A0D7B1D660F771F8A819B818F
:1051B000680F791FDB018D919C91E80FF91FB801F1
:1051C000660F771F8A819B81680F791FDB018D91A4
:1051D0009C91280F391FB981BC1508F48BC0780148
:1051E000EA18FB08EE0CFF1C6A817B81E60EF71EB5
:1051F000D7016D917C91261B370BE81BF90B7F01C2
:10520000E20EF31EC9018E1B9F0B8A879B87B70195
:105210007695679576956795680F791F77FD9FC09E
:10522000E217F30708F06DC0BA89B13009F069C020
:10523000B801A6E0660F771FAA95E1F77B8B6A8B12
:10524000BC01641B750B6817790770F0B6E0880F16
:10525000991FBA95E1F780960E9446314A895B8989
:10526000461B570B5B8B4A8B4C855D85E416F50618
:1052700008F44DC04E855F8504171507BCF14A89B7
:105280005B89DD20A9F04419550962E06D1550F4E1
:10529000C3018096B30176956795860F971F841793
:1052A0009507A8F1C51640F4CC24C394C50E45CF8C
:1052B0005F834E83FD82EC828E0C9F1CD39451E061
:1052C0005D15D8F46D2D70E061507109CB01959595
:1052D00087954A895B89840F951F4E815F81841B66
:1052E000950BD4D73B014A885B88170154E15D15C3
:1052F00038F40DC04A875B8704C04A885B88170171
:105300001A8A49814F5F49834A855B8541CFA885C9
:10531000B985AB2B59F1B1E0BD15D0F49401EC8106
:10532000FD812E1B3F0BA8EEB3E00E94AB31940130
:105330002219330940E050E0D0D788EE93E0821B79
:10534000930B0E940A06BC0188EB9AE79FD702C024
:1053500060E070E0A885B9856D937C9307C0E21783
:10536000F30708F465CFB1E0BA8BCBCFC3016396E6
:10537000E2E10C94EC31A6E2B2E0E1ECF9E20C944B
:10538000D431F82E062F8DE493E00E9453324C0165
:10539000E02FF0E0E057FE4F1491EF2DF0E0ED56D6
:1053A000FE4FE4911092AE011092AF011092B00145
:1053B0001092B1011092B5011092B4011092B60191
:1053C0001092B7011092B8011092B90180911A01A0
:1053D000813009F048C18091010118160CF443C1D5
:1053E00018B8E7B90E949E04006CD02E00937C0090
:1053F0000E949E04C12EE12C00E0212F4FEFBE0140
:105400006F5F7F4F80E191E00E9434008F2D806CB0
:10541000F82E80937C00212F44E1BE0161507E4F25
:1054200080E191E00E943400DE011196FE01E1501E
:10543000FE4FAE01475D5F4F2D913C9111978191D9
:1054400091912817390730F0281B390B11963C939E
:105450002E9303C011961C921E921296A417B507A4
:1054600059F7D0927C0060E070E0CE01019659DEE1
:105470009F5F913150F0903478F490E1692E94E080
:10548000792E22E0A22EB12C0DC080E1682E772467
:105490007394A12CB12C06C0B0E16B2E762C04E0E5
:1054A000A02EB12CA8E0DA2EA895C12EE12C00E0A8
:1054B000212F4FEFBE016F5F7F4FC3010E94340069
:1054C000A114B10471F064EB71E0CE01019629DE04
:1054D0008C01013C8FE3180708F459C000E010E08C
:1054E00056C093012064DA9411F03901DDCF211503
:1054F000344010F02EEF37C0F0927C00E89466F84C
:10550000F8E0FF2EC12EE12C00E0212F44E1BE0186
:1055100061507E4FC3010E943400689466F8FA948B
:1055200089F744E1415030F3842F90E0880F991FB0
:10553000E1E0F0E0EC0FFD1FE80FF91F2081318161
:10554000AFEFB1E0AC0FBD1FA80FB91F8D919C91BB
:105550002817390728F0281B390B31832083E2CF25
:1055600011821082DFCF2F3F09F4ADCFFE013196BB
:10557000E20FF11DE20FF11D8081918173E096959C
:1055800087957A95E1F7918380832150ECCF68016C
:10559000E12CF12C9801D801DED623E330E040E085
:1055A00050E09BD6A8E6B2E0EBD69401369527955D
:1055B00040E050E092D6C5010196880F991F04C0C3
:1055C000220F331F441F551F8A95D2F72093B6012F
:1055D0003093B7014093B8015093B901809109010C
:1055E00090910A01A0910B01B0910C010397A105C4
:1055F000B10540F01092B6011092B7011092B801B7
:105600001092B9010115110569F41092B5011092BB
:10561000B4011092B6011092B7011092B801109225
:10562000B90121C026E030E02A193B0960E072E1AF
:105630008AE790E004C0660F771F881F991F2A959C
:10564000D2F7A701960149D62093AE013093AF015E
:105650004093B0015093B1018091010187FD03C0D7
:105660008FEF80930101CA5DDD4FEEE0B9C6CF93A5
:10567000DF93D82F0E94830184E190E00E94D10142
:105680000E944E02C0E01092B3011092B20184E178
:105690000E94AA0462E080E00E943F150E948A01F5
:1056A00024E046E464EF8091B2019091B3010E943E
:1056B00065046091B2017091B3019B012C533F408E
:1056C0002539354780F4CF5FC53070F08DE493E025
:1056D000FDD60E94670185EB91E00E94D10184E62E
:1056E0000E94AA0405C0C0E00E944E02DF5F59F686
:1056F0000E948301DF91CF9108952F923F924F92A4
:105700005F927F928F929F92AF92BF92CF92DF92E1
:10571000EF92FF920F931F93CF93DF931F92CDB71A
:10572000DEB780E48AB98BB986E880937A0010925C
:10573000C1000E948A0414B784B7877F84BF88E1C0
:105740000FB6F89480936000109260000FBE86E858
:105750008093640088E380937E001092B00087E01D
:105760008093B10078940E94F60113FD54C580E146
:1057700085BF10E04F9906C082E00E94AA041F5F17
:105780001C33C1F78FE59DE69093130180931201BE
:105790001F3130F080E69DE6909313018093120153
:1057A00010922C010E9495182FE088E190E00FB62E
:1057B000F894A895809360000FBE209360001C337E
:1057C00020F00E9487238111FCCF10E103E3902E8B
:1057D0008FE3E82E81E0F82E9DE0892E20EF722ED7
:1057E00030E1D32E41E2C42E52E1B52E60E2A62E66
:1057F0000E94B20117B80E945A060E9495180E9492
:1058000083010E94050B80913A01882381F00E9458
:105810008A0180E691E00E94D10163E080912F012E
:10582000909130010E94700488EC0E94AA040E94AA
:105830008A010E94761480911A01893041F50E94F4
:10584000B20185E691E00E94D1010E948A0163E0E5
:1058500080910301909104010E9470040E946701ED
:1058600063E080910501909106010E9470040E94FE
:10587000670163E080910701909108010E94700424
:105880008AEC0E94AA0481E10E94DC069EC48CE09E
:105890000E947E018BE393E0FED5082F88E393E01E
:1058A000FAD5081B00933701002319F08EE00E94FF
:1058B0007E0180E00E94DC060E947B0284EB92E085
:1058C0000E94D10142E061E080E00E946E0B42E064
:1058D00060E081E00E946E0B41E062E080E00E94A7
:1058E0006E0B41E060E082E00E946E0B40E062E0FF
:1058F00081E00E946E0B40E061E082E00E946E0B4E
:1059000080911A0181110EC00E94761460E082E03D
:105910000E943F1561E082E00E943F1560E081E057
:105920000E943F1580911A01833059F4809118012B
:10593000823039F49091890180918A01981301C0D5
:105940007BD90E94B201F0923D01E0923C0180912E
:105950001A01863041F48BE892E00E94D10141E4C3
:1059600067E483E419C0873041F484E992E00E943F
:10597000D10142E367E481E30FC08A30F9F480E1AA
:1059800090E00E94D10189E591E090933D018093E0
:105990003C0143E467E481E40E94C2020E948A0160
:1059A00089E791E00E94D101E0913C01F0913D0135
:1059B00062E0848195810E94700407C4823009F0FE
:1059C0003FC08CE090E00E94D10142E365E481E3B6
:1059D0000E94C20280E00E94540260914D018091B9
:1059E0004C01E82FF0E0E60FF11DEE5AFE4F108259
:1059F0000E945A1280914D01E0914C01F0E0E80FB5
:105A0000F11DEE0FFF1FEE0FFF1FE256FE4F6081EC
:105A100071818281938102E024E04FEF0E9476033E
:105A200086E090E00E94D1016091490170914A01A5
:105A300080E090E003E025E240E00E947603C5C3E9
:105A4000883081F4209183018091840190E0820F5D
:105A5000911D029719F40E94FC1AC9C380E00E94AC
:105A6000121AB3C3833009F0C9C080911801813084
:105A700009F044C080E00E944E036091890180914A
:105A80008F010E94B90A80E70E94270340E06091DD
:105A9000890180918F01ECD9609373017093740137
:105AA000809375019093760180E00E94740260916A
:105AB000730170917401809175019091760102E0FB
:105AC00026E442EF0E9476038DE20E94590141E0F4
:105AD0006091890180918F01CBD96093730170939C
